{
  "contractName": "ETLSecurity",
  "abi": [
    {
      "anonymous": false,
      "inputs": [
        {
          "indexed": true,
          "internalType": "bytes32",
          "name": "id",
          "type": "bytes32"
        },
        {
          "indexed": false,
          "internalType": "string",
          "name": "data",
          "type": "string"
        },
        {
          "indexed": false,
          "internalType": "uint256",
          "name": "timestamp",
          "type": "uint256"
        }
      ],
      "name": "DataExtracted",
      "type": "event"
    },
    {
      "anonymous": false,
      "inputs": [
        {
          "indexed": true,
          "internalType": "bytes32",
          "name": "id",
          "type": "bytes32"
        },
        {
          "indexed": false,
          "internalType": "string",
          "name": "data",
          "type": "string"
        },
        {
          "indexed": false,
          "internalType": "uint256",
          "name": "timestamp",
          "type": "uint256"
        }
      ],
      "name": "DataLoaded",
      "type": "event"
    },
    {
      "anonymous": false,
      "inputs": [
        {
          "indexed": true,
          "internalType": "bytes32",
          "name": "id",
          "type": "bytes32"
        },
        {
          "indexed": false,
          "internalType": "string",
          "name": "data",
          "type": "string"
        },
        {
          "indexed": false,
          "internalType": "uint256",
          "name": "timestamp",
          "type": "uint256"
        }
      ],
      "name": "DataTransformed",
      "type": "event"
    },
    {
      "inputs": [
        {
          "internalType": "bytes32",
          "name": "",
          "type": "bytes32"
        }
      ],
      "name": "dataRecords",
      "outputs": [
        {
          "internalType": "string",
          "name": "data",
          "type": "string"
        },
        {
          "internalType": "uint256",
          "name": "timestamp",
          "type": "uint256"
        }
      ],
      "stateMutability": "view",
      "type": "function",
      "constant": true
    },
    {
      "inputs": [
        {
          "internalType": "string",
          "name": "data",
          "type": "string"
        }
      ],
      "name": "extractData",
      "outputs": [
        {
          "internalType": "bytes32",
          "name": "",
          "type": "bytes32"
        }
      ],
      "stateMutability": "nonpayable",
      "type": "function"
    },
    {
      "inputs": [
        {
          "internalType": "bytes32",
          "name": "id",
          "type": "bytes32"
        },
        {
          "internalType": "string",
          "name": "newData",
          "type": "string"
        }
      ],
      "name": "transformData",
      "outputs": [],
      "stateMutability": "nonpayable",
      "type": "function"
    },
    {
      "inputs": [
        {
          "internalType": "bytes32",
          "name": "id",
          "type": "bytes32"
        }
      ],
      "name": "loadData",
      "outputs": [
        {
          "internalType": "string",
          "name": "",
          "type": "string"
        }
      ],
      "stateMutability": "view",
      "type": "function",
      "constant": true
    }
  ],
  "bytecode": "0x608060405234801561001057600080fd5b5061073d806100206000396000f3fe608060405234801561001057600080fd5b506004361061004c5760003560e01c80635ff8ceaa1461005157806389bbf742146100775780638bdeb7d81461008c578063fce0590d146100ac575b600080fd5b61006461005f366004610473565b6100cd565b6040519081526020015b60405180910390f35b61008a6100853660046104b0565b610174565b005b61009f61009a3660046104f7565b61023b565b60405161006e9190610560565b6100bf6100ba3660046104f7565b61032c565b60405161006e92919061057a565b60008082426040516020016100e392919061059c565b60408051601f1981840301815282825280516020918201208383018352868452428483015260008181529182905291902082519193509081906101269082610647565b5060208201518160010155905050807f8b178cd35ba3ec3b5cbec6c74c3d1bb4aa516fa7d9979894f7577f18a9fbf91a844260405161016692919061057a565b60405180910390a292915050565b60008281526020819052604081206001015490036101ca5760405162461bcd60e51b815260206004820152600e60248201526d11185d18481b9bdd08199bdd5b9960921b60448201526064015b60405180910390fd5b60008281526020819052604090206101e28282610647565b504260008084815260200190815260200160002060010181905550817f0cce517793b16cc33bf18301f69209b4efb82cfbbfef30c4832a884903bad062824260405161022f92919061057a565b60405180910390a25050565b6000818152602081905260408120600101546060910361028e5760405162461bcd60e51b815260206004820152600e60248201526d11185d18481b9bdd08199bdd5b9960921b60448201526064016101c1565b600082815260208190526040902080546102a7906105be565b80601f01602080910402602001604051908101604052809291908181526020018280546102d3906105be565b80156103205780601f106102f557610100808354040283529160200191610320565b820191906000526020600020905b81548152906001019060200180831161030357829003601f168201915b50505050509050919050565b600060208190529081526040902080548190610347906105be565b80601f0160208091040260200160405190810160405280929190818152602001828054610373906105be565b80156103c05780601f10610395576101008083540402835291602001916103c0565b820191906000526020600020905b8154815290600101906020018083116103a357829003601f168201915b5050505050908060010154905082565b634e487b7160e01b600052604160045260246000fd5b600082601f8301126103f757600080fd5b813567ffffffffffffffff80821115610412576104126103d0565b604051601f8301601f19908116603f0116810190828211818310171561043a5761043a6103d0565b8160405283815286602085880101111561045357600080fd5b836020870160208301376000602085830101528094505050505092915050565b60006020828403121561048557600080fd5b813567ffffffffffffffff81111561049c57600080fd5b6104a8848285016103e6565b949350505050565b600080604083850312156104c357600080fd5b82359150602083013567ffffffffffffffff8111156104e157600080fd5b6104ed858286016103e6565b9150509250929050565b60006020828403121561050957600080fd5b5035919050565b60005b8381101561052b578181015183820152602001610513565b50506000910152565b6000815180845261054c816020860160208601610510565b601f01601f19169290920160200192915050565b6020815260006105736020830184610534565b9392505050565b60408152600061058d6040830185610534565b90508260208301529392505050565b600083516105ae818460208801610510565b9190910191825250602001919050565b600181811c908216806105d257607f821691505b6020821081036105f257634e487b7160e01b600052602260045260246000fd5b50919050565b601f82111561064257600081815260208120601f850160051c8101602086101561061f5750805b601f850160051c820191505b8181101561063e5782815560010161062b565b5050505b505050565b815167ffffffffffffffff811115610661576106616103d0565b6106758161066f84546105be565b846105f8565b602080601f8311600181146106aa57600084156106925750858301515b600019600386901b1c1916600185901b17855561063e565b600085815260208120601f198616915b828110156106d9578886015182559484019460019091019084016106ba565b50858210156106f75787850151600019600388901b60f8161c191681555b5050505050600190811b0190555056fea26469706673582212206d01ca84c912498f40690f31a893384817854efb39c8cc9b3372ae723220031764736f6c63430008130033",
  "immutableReferences": {},
  "source": "// SPDX-License-Identifier: MIT\r\npragma solidity >=0.8.19;\r\n\r\n/**\r\n * @title ETLSecurity\r\n * @dev A smart contract for securing ETL processes using blockchain technology.\r\n */\r\ncontract ETLSecurity {\r\n    struct DataRecord {\r\n        string data;\r\n        uint256 timestamp;\r\n    }\r\n\r\n    mapping(bytes32 => DataRecord) public dataRecords;\r\n\r\n    event DataExtracted(bytes32 indexed id, string data, uint256 timestamp);\r\n    event DataTransformed(bytes32 indexed id, string data, uint256 timestamp);\r\n    event DataLoaded(bytes32 indexed id, string data, uint256 timestamp);\r\n\r\n    /**\r\n     * @dev Extracts data and stores it on the blockchain.\r\n     * @param data The data to be extracted.\r\n     * @return id The unique identifier for the data record.\r\n     */\r\n    function extractData(string memory data) public returns (bytes32) {\r\n        bytes32 id = keccak256(abi.encodePacked(data, block.timestamp));\r\n        dataRecords[id] = DataRecord(data, block.timestamp);\r\n        emit DataExtracted(id, data, block.timestamp);\r\n        return id;\r\n    }\r\n\r\n    /**\r\n     * @dev Transforms existing data in the blockchain record.\r\n     * @param id The unique identifier for the data record.\r\n     * @param newData The new data to replace the existing data.\r\n     */\r\n    function transformData(bytes32 id, string memory newData) public {\r\n        require(dataRecords[id].timestamp != 0, \"Data not found\");\r\n        dataRecords[id].data = newData;\r\n        dataRecords[id].timestamp = block.timestamp;\r\n        emit DataTransformed(id, newData, block.timestamp);\r\n    }\r\n\r\n    /**\r\n     * @dev Loads data from the blockchain record.\r\n     * @param id The unique identifier for the data record.\r\n     * @return The data stored in the blockchain.\r\n     */\r\n    function loadData(bytes32 id) public view returns (string memory) {\r\n        require(dataRecords[id].timestamp != 0, \"Data not found\");\r\n        return dataRecords[id].data;\r\n    }\r\n}\r\n",
  "sourcePath": "C:\\Users\\borot\\Desktop\\master\\rad\\master-etf\\contracts\\ETLSecurity.sol",
  "compiler": {
    "name": "solc",
    "version": "0.8.19+commit.7dd6d404.Emscripten.clang"
  },
  "schemaVersion": "3.4.16",
  "updatedAt": "2024-08-31T21:10:29.537Z",
  "networkType": "ethereum",
  "devdoc": {
    "details": "A smart contract for securing ETL processes using blockchain technology.",
    "kind": "dev",
    "methods": {
      "extractData(string)": {
        "details": "Extracts data and stores it on the blockchain.",
        "params": {
          "data": "The data to be extracted."
        },
        "returns": {
          "_0": "id The unique identifier for the data record."
        }
      },
      "loadData(bytes32)": {
        "details": "Loads data from the blockchain record.",
        "params": {
          "id": "The unique identifier for the data record."
        },
        "returns": {
          "_0": "The data stored in the blockchain."
        }
      },
      "transformData(bytes32,string)": {
        "details": "Transforms existing data in the blockchain record.",
        "params": {
          "id": "The unique identifier for the data record.",
          "newData": "The new data to replace the existing data."
        }
      }
    },
    "title": "ETLSecurity",
    "version": 1
  },
  "userdoc": {
    "kind": "user",
    "methods": {},
    "version": 1
  }
}