{
  "contractName": "SecureETL",
  "abi": [
    {
      "inputs": [],
      "stateMutability": "nonpayable",
      "type": "constructor"
    },
    {
      "anonymous": false,
      "inputs": [
        {
          "indexed": true,
          "internalType": "bytes32",
          "name": "id",
          "type": "bytes32"
        },
        {
          "indexed": false,
          "internalType": "string",
          "name": "data",
          "type": "string"
        },
        {
          "indexed": false,
          "internalType": "uint256",
          "name": "timestamp",
          "type": "uint256"
        }
      ],
      "name": "DataExtracted",
      "type": "event"
    },
    {
      "anonymous": false,
      "inputs": [
        {
          "indexed": true,
          "internalType": "bytes32",
          "name": "id",
          "type": "bytes32"
        },
        {
          "indexed": false,
          "internalType": "string",
          "name": "data",
          "type": "string"
        },
        {
          "indexed": false,
          "internalType": "uint256",
          "name": "timestamp",
          "type": "uint256"
        }
      ],
      "name": "DataLoaded",
      "type": "event"
    },
    {
      "anonymous": false,
      "inputs": [
        {
          "indexed": true,
          "internalType": "bytes32",
          "name": "id",
          "type": "bytes32"
        },
        {
          "indexed": false,
          "internalType": "string",
          "name": "data",
          "type": "string"
        },
        {
          "indexed": false,
          "internalType": "uint256",
          "name": "timestamp",
          "type": "uint256"
        }
      ],
      "name": "DataTransformed",
      "type": "event"
    },
    {
      "anonymous": false,
      "inputs": [
        {
          "indexed": true,
          "internalType": "bytes32",
          "name": "role",
          "type": "bytes32"
        },
        {
          "indexed": true,
          "internalType": "bytes32",
          "name": "previousAdminRole",
          "type": "bytes32"
        },
        {
          "indexed": true,
          "internalType": "bytes32",
          "name": "newAdminRole",
          "type": "bytes32"
        }
      ],
      "name": "RoleAdminChanged",
      "type": "event"
    },
    {
      "anonymous": false,
      "inputs": [
        {
          "indexed": true,
          "internalType": "bytes32",
          "name": "role",
          "type": "bytes32"
        },
        {
          "indexed": true,
          "internalType": "address",
          "name": "account",
          "type": "address"
        },
        {
          "indexed": true,
          "internalType": "address",
          "name": "sender",
          "type": "address"
        }
      ],
      "name": "RoleGranted",
      "type": "event"
    },
    {
      "anonymous": false,
      "inputs": [
        {
          "indexed": true,
          "internalType": "bytes32",
          "name": "role",
          "type": "bytes32"
        },
        {
          "indexed": true,
          "internalType": "address",
          "name": "account",
          "type": "address"
        },
        {
          "indexed": true,
          "internalType": "address",
          "name": "sender",
          "type": "address"
        }
      ],
      "name": "RoleRevoked",
      "type": "event"
    },
    {
      "inputs": [],
      "name": "DEFAULT_ADMIN_ROLE",
      "outputs": [
        {
          "internalType": "bytes32",
          "name": "",
          "type": "bytes32"
        }
      ],
      "stateMutability": "view",
      "type": "function",
      "constant": true
    },
    {
      "inputs": [],
      "name": "EXTRACTOR_ROLE",
      "outputs": [
        {
          "internalType": "bytes32",
          "name": "",
          "type": "bytes32"
        }
      ],
      "stateMutability": "view",
      "type": "function",
      "constant": true
    },
    {
      "inputs": [],
      "name": "LOADER_ROLE",
      "outputs": [
        {
          "internalType": "bytes32",
          "name": "",
          "type": "bytes32"
        }
      ],
      "stateMutability": "view",
      "type": "function",
      "constant": true
    },
    {
      "inputs": [],
      "name": "TRANSFORMER_ROLE",
      "outputs": [
        {
          "internalType": "bytes32",
          "name": "",
          "type": "bytes32"
        }
      ],
      "stateMutability": "view",
      "type": "function",
      "constant": true
    },
    {
      "inputs": [
        {
          "internalType": "bytes32",
          "name": "",
          "type": "bytes32"
        }
      ],
      "name": "dataRecords",
      "outputs": [
        {
          "internalType": "string",
          "name": "data",
          "type": "string"
        },
        {
          "internalType": "uint256",
          "name": "timestamp",
          "type": "uint256"
        }
      ],
      "stateMutability": "view",
      "type": "function",
      "constant": true
    },
    {
      "inputs": [
        {
          "internalType": "bytes32",
          "name": "role",
          "type": "bytes32"
        }
      ],
      "name": "getRoleAdmin",
      "outputs": [
        {
          "internalType": "bytes32",
          "name": "",
          "type": "bytes32"
        }
      ],
      "stateMutability": "view",
      "type": "function",
      "constant": true
    },
    {
      "inputs": [
        {
          "internalType": "bytes32",
          "name": "role",
          "type": "bytes32"
        },
        {
          "internalType": "address",
          "name": "account",
          "type": "address"
        }
      ],
      "name": "grantRole",
      "outputs": [],
      "stateMutability": "nonpayable",
      "type": "function"
    },
    {
      "inputs": [
        {
          "internalType": "bytes32",
          "name": "role",
          "type": "bytes32"
        },
        {
          "internalType": "address",
          "name": "account",
          "type": "address"
        }
      ],
      "name": "hasRole",
      "outputs": [
        {
          "internalType": "bool",
          "name": "",
          "type": "bool"
        }
      ],
      "stateMutability": "view",
      "type": "function",
      "constant": true
    },
    {
      "inputs": [
        {
          "internalType": "bytes32",
          "name": "role",
          "type": "bytes32"
        },
        {
          "internalType": "address",
          "name": "account",
          "type": "address"
        }
      ],
      "name": "renounceRole",
      "outputs": [],
      "stateMutability": "nonpayable",
      "type": "function"
    },
    {
      "inputs": [
        {
          "internalType": "bytes32",
          "name": "role",
          "type": "bytes32"
        },
        {
          "internalType": "address",
          "name": "account",
          "type": "address"
        }
      ],
      "name": "revokeRole",
      "outputs": [],
      "stateMutability": "nonpayable",
      "type": "function"
    },
    {
      "inputs": [
        {
          "internalType": "bytes4",
          "name": "interfaceId",
          "type": "bytes4"
        }
      ],
      "name": "supportsInterface",
      "outputs": [
        {
          "internalType": "bool",
          "name": "",
          "type": "bool"
        }
      ],
      "stateMutability": "view",
      "type": "function",
      "constant": true
    },
    {
      "inputs": [
        {
          "internalType": "bytes32",
          "name": "",
          "type": "bytes32"
        },
        {
          "internalType": "uint256",
          "name": "",
          "type": "uint256"
        }
      ],
      "name": "transformationHistory",
      "outputs": [
        {
          "internalType": "string",
          "name": "data",
          "type": "string"
        },
        {
          "internalType": "uint256",
          "name": "timestamp",
          "type": "uint256"
        },
        {
          "internalType": "address",
          "name": "transformer",
          "type": "address"
        }
      ],
      "stateMutability": "view",
      "type": "function",
      "constant": true
    },
    {
      "inputs": [
        {
          "internalType": "string",
          "name": "data",
          "type": "string"
        }
      ],
      "name": "extractData",
      "outputs": [
        {
          "internalType": "bytes32",
          "name": "",
          "type": "bytes32"
        }
      ],
      "stateMutability": "nonpayable",
      "type": "function"
    },
    {
      "inputs": [
        {
          "internalType": "bytes32",
          "name": "id",
          "type": "bytes32"
        },
        {
          "internalType": "string",
          "name": "newData",
          "type": "string"
        }
      ],
      "name": "transformDataStep1",
      "outputs": [],
      "stateMutability": "nonpayable",
      "type": "function"
    },
    {
      "inputs": [
        {
          "internalType": "bytes32",
          "name": "id",
          "type": "bytes32"
        },
        {
          "internalType": "string",
          "name": "additionalData",
          "type": "string"
        }
      ],
      "name": "transformDataStep2",
      "outputs": [],
      "stateMutability": "nonpayable",
      "type": "function"
    },
    {
      "inputs": [
        {
          "internalType": "bytes32",
          "name": "id",
          "type": "bytes32"
        }
      ],
      "name": "loadData",
      "outputs": [
        {
          "internalType": "string",
          "name": "",
          "type": "string"
        }
      ],
      "stateMutability": "view",
      "type": "function",
      "constant": true
    },
    {
      "inputs": [
        {
          "internalType": "bytes32",
          "name": "id",
          "type": "bytes32"
        }
      ],
      "name": "getTransformationHistory",
      "outputs": [
        {
          "components": [
            {
              "internalType": "string",
              "name": "data",
              "type": "string"
            },
            {
              "internalType": "uint256",
              "name": "timestamp",
              "type": "uint256"
            },
            {
              "internalType": "address",
              "name": "transformer",
              "type": "address"
            }
          ],
          "internalType": "struct SecureETL.TransformationRecord[]",
          "name": "",
          "type": "tuple[]"
        }
      ],
      "stateMutability": "view",
      "type": "function",
      "constant": true
    }
  ],
  "bytecode": "0x60806040523480156200001157600080fd5b506200001f600033620000a9565b6200004b7f11cf46bea1094f63335637b879e8021ce59a9008b10e90c59d17337675ebc79233620000a9565b620000777f69fc995a7cdbc94c95dc768dfaa8ceead6003727063f7d66555660831926229833620000a9565b620000a37f0d06e1f0737828900f60abe7f9857704edf8b7b6073dd8a0c7222c9cd1a0ad4133620000a9565b6200014a565b6000828152602081815260408083206001600160a01b038516845290915290205460ff1662000146576000828152602081815260408083206001600160a01b03851684529091529020805460ff19166001179055620001053390565b6001600160a01b0316816001600160a01b0316837f2f8788117e7eff1d82e926ec794901d17c78024a50270940304540a733656f0d60405160405180910390a45b5050565b611569806200015a6000396000f3fe608060405234801561001057600080fd5b506004361061010b5760003560e01c806370edac76116100a257806391d148541161007157806391d148541461027a578063a217fddf1461028d578063b342545b14610295578063d547741f146102bc578063fce0590d146102cf57600080fd5b806370edac7614610200578063801c9779146102275780638bbd3dd71461023a5780638bdeb7d81461025a57600080fd5b806336568abe116100de57806336568abe14610191578063387f924e146101a45780635d599ee5146101c65780635ff8ceaa146101ed57600080fd5b806301ffc9a71461011057806302a8af9814610138578063248a9ca31461014d5780632f2ff15d1461017e575b600080fd5b61012361011e366004610f01565b6102f0565b60405190151581526020015b60405180910390f35b61014b610146366004610fce565b610327565b005b61017061015b366004611015565b60009081526020819052604090206001015490565b60405190815260200161012f565b61014b61018c36600461102e565b610544565b61014b61019f36600461102e565b61056e565b6101b76101b236600461106a565b6105ec565b60405161012f939291906110dc565b6101707f11cf46bea1094f63335637b879e8021ce59a9008b10e90c59d17337675ebc79281565b6101706101fb36600461110f565b6106c5565b6101707f69fc995a7cdbc94c95dc768dfaa8ceead6003727063f7d66555660831926229881565b61014b610235366004610fce565b610843565b61024d610248366004611015565b6108c8565b60405161012f919061114c565b61026d610268366004611015565b6109ef565b60405161012f91906111d6565b61012361028836600461102e565b610b0b565b610170600081565b6101707f0d06e1f0737828900f60abe7f9857704edf8b7b6073dd8a0c7222c9cd1a0ad4181565b61014b6102ca36600461102e565b610b34565b6102e26102dd366004611015565b610b59565b60405161012f9291906111e9565b60006001600160e01b03198216637965db0b60e01b148061032157506301ffc9a760e01b6001600160e01b03198316145b92915050565b7f69fc995a7cdbc94c95dc768dfaa8ceead6003727063f7d66555660831926229861035181610bfd565b60008381526001602081905260408220015490036103a75760405162461bcd60e51b815260206004820152600e60248201526d11185d18481b9bdd08199bdd5b9960921b60448201526064015b60405180910390fd5b604051691c995cdd1c9a58dd195960b21b6020820152602a0160408051601f1981840301815282825280516020918201206000878152600183529290922091926103f292910161123f565b60405160208183030381529060405280519060200120036104555760405162461bcd60e51b815260206004820152601e60248201527f44617461207472616e73666f726d6174696f6e20726573747269637465640000604482015260640161039e565b600083815260016020526040902061046d8382611303565b50600083815260016020819052604091829020429101819055905184917f0cce517793b16cc33bf18301f69209b4efb82cfbbfef30c4832a884903bad062916104b79186916111e9565b60405180910390a26000838152600260209081526040808320815160608101835286815242818501523392810192909252805460018101825590845291909220825160039092020190819061050c9082611303565b5060208201516001820155604090910151600290910180546001600160a01b0319166001600160a01b03909216919091179055505050565b60008281526020819052604090206001015461055f81610bfd565b6105698383610c0a565b505050565b6001600160a01b03811633146105de5760405162461bcd60e51b815260206004820152602f60248201527f416363657373436f6e74726f6c3a2063616e206f6e6c792072656e6f756e636560448201526e103937b632b9903337b91039b2b63360891b606482015260840161039e565b6105e88282610c8e565b5050565b6002602052816000526040600020818154811061060857600080fd5b90600052602060002090600302016000915091505080600001805461062c9061120b565b80601f01602080910402602001604051908101604052809291908181526020018280546106589061120b565b80156106a55780601f1061067a576101008083540402835291602001916106a5565b820191906000526020600020905b81548152906001019060200180831161068857829003601f168201915b5050505060018301546002909301549192916001600160a01b0316905083565b60007f11cf46bea1094f63335637b879e8021ce59a9008b10e90c59d17337675ebc7926106f181610bfd565b600083426040516020016107069291906113c3565b60405160208183030381529060405280519060200120905060038460405161072e91906113e5565b9081526040519081900360200190205460ff161561075e5760405162461bcd60e51b815260040161039e90611401565b600081815260016020819052604090912001541561078e5760405162461bcd60e51b815260040161039e90611401565b604080518082018252858152426020808301919091526000848152600190915291909120815181906107c09082611303565b506020820151816001015590505060016003856040516107e091906113e5565b908152604051908190036020018120805492151560ff199093169290921790915581907f8b178cd35ba3ec3b5cbec6c74c3d1bb4aa516fa7d9979894f7577f18a9fbf91a9061083290879042906111e9565b60405180910390a291505b50919050565b7f69fc995a7cdbc94c95dc768dfaa8ceead6003727063f7d66555660831926229861086d81610bfd565b6000838152600260205260409020546104555760405162461bcd60e51b815260206004820181905260248201527f50726576696f7573207472616e73666f726d6174696f6e207265717569726564604482015260640161039e565b606060026000838152602001908152602001600020805480602002602001604051908101604052809291908181526020016000905b828210156109e457838290600052602060002090600302016040518060600160405290816000820180546109309061120b565b80601f016020809104026020016040519081016040528092919081815260200182805461095c9061120b565b80156109a95780601f1061097e576101008083540402835291602001916109a9565b820191906000526020600020905b81548152906001019060200180831161098c57829003601f168201915b50505091835250506001828101546020808401919091526002909301546001600160a01b0316604090920191909152918352920191016108fd565b505050509050919050565b60607f0d06e1f0737828900f60abe7f9857704edf8b7b6073dd8a0c7222c9cd1a0ad41610a1b81610bfd565b6000838152600160208190526040822001549003610a6c5760405162461bcd60e51b815260206004820152600e60248201526d11185d18481b9bdd08199bdd5b9960921b604482015260640161039e565b60008381526001602052604090208054610a859061120b565b80601f0160208091040260200160405190810160405280929190818152602001828054610ab19061120b565b8015610afe5780601f10610ad357610100808354040283529160200191610afe565b820191906000526020600020905b815481529060010190602001808311610ae157829003601f168201915b5050505050915050919050565b6000918252602082815260408084206001600160a01b0393909316845291905290205460ff1690565b600082815260208190526040902060010154610b4f81610bfd565b6105698383610c8e565b600160205260009081526040902080548190610b749061120b565b80601f0160208091040260200160405190810160405280929190818152602001828054610ba09061120b565b8015610bed5780601f10610bc257610100808354040283529160200191610bed565b820191906000526020600020905b815481529060010190602001808311610bd057829003601f168201915b5050505050908060010154905082565b610c078133610cf3565b50565b610c148282610b0b565b6105e8576000828152602081815260408083206001600160a01b03851684529091529020805460ff19166001179055610c4a3390565b6001600160a01b0316816001600160a01b0316837f2f8788117e7eff1d82e926ec794901d17c78024a50270940304540a733656f0d60405160405180910390a45050565b610c988282610b0b565b156105e8576000828152602081815260408083206001600160a01b0385168085529252808320805460ff1916905551339285917ff6391f5c32d9c69d2a47ea670b442974b53935d1edc7fd64eb21e047a839171b9190a45050565b610cfd8282610b0b565b6105e857610d0a81610d4c565b610d15836020610d5e565b604051602001610d26929190611451565b60408051601f198184030181529082905262461bcd60e51b825261039e916004016111d6565b60606103216001600160a01b03831660145b60606000610d6d8360026114dc565b610d789060026114f3565b67ffffffffffffffff811115610d9057610d90610f2b565b6040519080825280601f01601f191660200182016040528015610dba576020820181803683370190505b509050600360fc1b81600081518110610dd557610dd5611506565b60200101906001600160f81b031916908160001a905350600f60fb1b81600181518110610e0457610e04611506565b60200101906001600160f81b031916908160001a9053506000610e288460026114dc565b610e339060016114f3565b90505b6001811115610eab576f181899199a1a9b1b9c1cb0b131b232b360811b85600f1660108110610e6757610e67611506565b1a60f81b828281518110610e7d57610e7d611506565b60200101906001600160f81b031916908160001a90535060049490941c93610ea48161151c565b9050610e36565b508315610efa5760405162461bcd60e51b815260206004820181905260248201527f537472696e67733a20686578206c656e67746820696e73756666696369656e74604482015260640161039e565b9392505050565b600060208284031215610f1357600080fd5b81356001600160e01b031981168114610efa57600080fd5b634e487b7160e01b600052604160045260246000fd5b600082601f830112610f5257600080fd5b813567ffffffffffffffff80821115610f6d57610f6d610f2b565b604051601f8301601f19908116603f01168101908282118183101715610f9557610f95610f2b565b81604052838152866020858801011115610fae57600080fd5b836020870160208301376000602085830101528094505050505092915050565b60008060408385031215610fe157600080fd5b82359150602083013567ffffffffffffffff811115610fff57600080fd5b61100b85828601610f41565b9150509250929050565b60006020828403121561102757600080fd5b5035919050565b6000806040838503121561104157600080fd5b8235915060208301356001600160a01b038116811461105f57600080fd5b809150509250929050565b6000806040838503121561107d57600080fd5b50508035926020909101359150565b60005b838110156110a757818101518382015260200161108f565b50506000910152565b600081518084526110c881602086016020860161108c565b601f01601f19169290920160200192915050565b6060815260006110ef60608301866110b0565b6020830194909452506001600160a01b0391909116604090910152919050565b60006020828403121561112157600080fd5b813567ffffffffffffffff81111561113857600080fd5b61114484828501610f41565b949350505050565b60006020808301818452808551808352604092508286019150828160051b87010184880160005b838110156111c857603f19898403018552815160608151818652611199828701826110b0565b838b0151878c0152928901516001600160a01b0316958901959095525094870194925090860190600101611173565b509098975050505050505050565b602081526000610efa60208301846110b0565b6040815260006111fc60408301856110b0565b90508260208301529392505050565b600181811c9082168061121f57607f821691505b60208210810361083d57634e487b7160e01b600052602260045260246000fd5b600080835461124d8161120b565b60018281168015611265576001811461127a576112a9565b60ff19841687528215158302870194506112a9565b8760005260208060002060005b858110156112a05781548a820152908401908201611287565b50505082870194505b50929695505050505050565b601f82111561056957600081815260208120601f850160051c810160208610156112dc5750805b601f850160051c820191505b818110156112fb578281556001016112e8565b505050505050565b815167ffffffffffffffff81111561131d5761131d610f2b565b6113318161132b845461120b565b846112b5565b602080601f831160018114611366576000841561134e5750858301515b600019600386901b1c1916600185901b1785556112fb565b600085815260208120601f198616915b8281101561139557888601518255948401946001909101908401611376565b50858210156113b35787850151600019600388901b60f8161c191681555b5050505050600190811b01905550565b600083516113d581846020880161108c565b9190910191825250602001919050565b600082516113f781846020870161108c565b9190910192915050565b60208082526030908201527f4461746120616c726561647920657869737473206f722074616d70657265642060408201526f185d1d195b5c1d0819195d1958dd195960821b606082015260800190565b7f416363657373436f6e74726f6c3a206163636f756e742000000000000000000081526000835161148981601785016020880161108c565b7001034b99036b4b9b9b4b733903937b6329607d1b60179184019182015283516114ba81602884016020880161108c565b01602801949350505050565b634e487b7160e01b600052601160045260246000fd5b8082028115828204841417610321576103216114c6565b80820180821115610321576103216114c6565b634e487b7160e01b600052603260045260246000fd5b60008161152b5761152b6114c6565b50600019019056fea2646970667358221220fc89186773e011ae4b8b1a98dcaa2e249c68e97a33c0a9cc347bdbee9d9e0b0464736f6c63430008130033",
  "immutableReferences": {},
  "source": "// SPDX-License-Identifier: MIT\r\npragma solidity >=0.8.19;\r\n\r\nimport {AccessControl} from '../node_modules/@openzeppelin/contracts/access/AccessControl.sol';\r\n\r\ncontract SecureETL is AccessControl {\r\n    bytes32 public constant EXTRACTOR_ROLE = keccak256(\"EXTRACTOR_ROLE\");\r\n    bytes32 public constant TRANSFORMER_ROLE = keccak256(\"TRANSFORMER_ROLE\");\r\n    bytes32 public constant LOADER_ROLE = keccak256(\"LOADER_ROLE\");\r\n\r\n    struct DataRecord {\r\n        string data;\r\n        uint256 timestamp;\r\n    }\r\n\r\n    struct TransformationRecord {\r\n        string data;\r\n        uint256 timestamp;\r\n        address transformer;\r\n    }\r\n\r\n    mapping(bytes32 => DataRecord) public dataRecords;\r\n    mapping(bytes32 => TransformationRecord[]) public transformationHistory;\r\n    mapping(string => bool) private existingData;\r\n\r\n    event DataExtracted(bytes32 indexed id, string data, uint256 timestamp);\r\n    event DataTransformed(bytes32 indexed id, string data, uint256 timestamp);\r\n    event DataLoaded(bytes32 indexed id, string data, uint256 timestamp);\r\n\r\n    constructor() {\r\n        _grantRole(DEFAULT_ADMIN_ROLE, msg.sender);\r\n        _grantRole(EXTRACTOR_ROLE, msg.sender);\r\n        _grantRole(TRANSFORMER_ROLE, msg.sender);\r\n        _grantRole(LOADER_ROLE, msg.sender);\r\n    }\r\n\r\n    // Function to extract data and store it on the blockchain\r\n        function extractData(string memory data) public onlyRole(EXTRACTOR_ROLE) returns (bytes32) {\r\n        bytes32 id = keccak256(abi.encodePacked(data, block.timestamp));\r\n        require(!existingData[data], \"Data already exists or tampered attempt detected\");\r\n        require(dataRecords[id].timestamp == 0, \"Data already exists or tampered attempt detected\");\r\n        \r\n        dataRecords[id] = DataRecord(data, block.timestamp);\r\n        existingData[data] = true; // Mark this data as existing\r\n        emit DataExtracted(id, data, block.timestamp);\r\n        return id;\r\n    }\r\n\r\n    // First step of transforming the data\r\n    function transformDataStep1(bytes32 id, string memory newData) public onlyRole(TRANSFORMER_ROLE) {\r\n        require(dataRecords[id].timestamp != 0, \"Data not found\");\r\n        require(keccak256(abi.encodePacked(dataRecords[id].data)) != keccak256(abi.encodePacked(\"restricted\")), \"Data transformation restricted\");\r\n\r\n        dataRecords[id].data = newData;\r\n        dataRecords[id].timestamp = block.timestamp;\r\n        emit DataTransformed(id, newData, block.timestamp);\r\n\r\n        transformationHistory[id].push(TransformationRecord(newData, block.timestamp, msg.sender));\r\n    }\r\n\r\n    // Second step of transforming the data\r\n    function transformDataStep2(bytes32 id, string memory additionalData) public onlyRole(TRANSFORMER_ROLE) {\r\n        require(transformationHistory[id].length > 0, \"Previous transformation required\");\r\n\r\n        dataRecords[id].data = additionalData;  \r\n        dataRecords[id].timestamp = block.timestamp;\r\n        emit DataTransformed(id, additionalData, block.timestamp);\r\n\r\n        transformationHistory[id].push(TransformationRecord(additionalData, block.timestamp, msg.sender));\r\n    }\r\n\r\n\r\n    // Function to load data from the blockchain\r\n    function loadData(bytes32 id) public view onlyRole(LOADER_ROLE) returns (string memory) {\r\n        require(dataRecords[id].timestamp != 0, \"Data not found\");\r\n        return dataRecords[id].data;\r\n    }\r\n\r\n    // Function to retrieve the transformation history for a specific data record\r\n    function getTransformationHistory(bytes32 id) public view returns (TransformationRecord[] memory) {\r\n        return transformationHistory[id];\r\n    }\r\n}\r\n",
  "sourcePath": "C:\\Users\\borot\\Desktop\\master\\rad\\master-etf\\contracts\\SecureETL.sol",
  "compiler": {
    "name": "solc",
    "version": "0.8.19+commit.7dd6d404.Emscripten.clang"
  },
  "schemaVersion": "3.4.16",
  "updatedAt": "2024-08-31T21:10:30.339Z",
  "networkType": "ethereum",
  "devdoc": {
    "events": {
      "RoleAdminChanged(bytes32,bytes32,bytes32)": {
        "details": "Emitted when `newAdminRole` is set as ``role``'s admin role, replacing `previousAdminRole` `DEFAULT_ADMIN_ROLE` is the starting admin for all roles, despite {RoleAdminChanged} not being emitted signaling this. _Available since v3.1._"
      },
      "RoleGranted(bytes32,address,address)": {
        "details": "Emitted when `account` is granted `role`. `sender` is the account that originated the contract call, an admin role bearer except when using {AccessControl-_setupRole}."
      },
      "RoleRevoked(bytes32,address,address)": {
        "details": "Emitted when `account` is revoked `role`. `sender` is the account that originated the contract call:   - if using `revokeRole`, it is the admin role bearer   - if using `renounceRole`, it is the role bearer (i.e. `account`)"
      }
    },
    "kind": "dev",
    "methods": {
      "getRoleAdmin(bytes32)": {
        "details": "Returns the admin role that controls `role`. See {grantRole} and {revokeRole}. To change a role's admin, use {_setRoleAdmin}."
      },
      "grantRole(bytes32,address)": {
        "details": "Grants `role` to `account`. If `account` had not been already granted `role`, emits a {RoleGranted} event. Requirements: - the caller must have ``role``'s admin role. May emit a {RoleGranted} event."
      },
      "hasRole(bytes32,address)": {
        "details": "Returns `true` if `account` has been granted `role`."
      },
      "renounceRole(bytes32,address)": {
        "details": "Revokes `role` from the calling account. Roles are often managed via {grantRole} and {revokeRole}: this function's purpose is to provide a mechanism for accounts to lose their privileges if they are compromised (such as when a trusted device is misplaced). If the calling account had been revoked `role`, emits a {RoleRevoked} event. Requirements: - the caller must be `account`. May emit a {RoleRevoked} event."
      },
      "revokeRole(bytes32,address)": {
        "details": "Revokes `role` from `account`. If `account` had been granted `role`, emits a {RoleRevoked} event. Requirements: - the caller must have ``role``'s admin role. May emit a {RoleRevoked} event."
      },
      "supportsInterface(bytes4)": {
        "details": "See {IERC165-supportsInterface}."
      }
    },
    "version": 1
  },
  "userdoc": {
    "kind": "user",
    "methods": {},
    "version": 1
  }
}