{
  "contractName": "SimpleContract",
  "abi": [
    {
      "inputs": [],
      "name": "data",
      "outputs": [
        {
          "internalType": "uint256",
          "name": "",
          "type": "uint256"
        }
      ],
      "stateMutability": "view",
      "type": "function"
    },
    {
      "inputs": [
        {
          "internalType": "uint256",
          "name": "_data",
          "type": "uint256"
        }
      ],
      "name": "setData",
      "outputs": [],
      "stateMutability": "nonpayable",
      "type": "function"
    },
    {
      "inputs": [],
      "name": "getData",
      "outputs": [
        {
          "internalType": "uint256",
          "name": "",
          "type": "uint256"
        }
      ],
      "stateMutability": "view",
      "type": "function"
    }
  ],
  "bytecode": "0x608060405234801561001057600080fd5b5060bf8061001f6000396000f3fe6080604052348015600f57600080fd5b5060043610603c5760003560e01c80633bc5de301460415780635b4b73a914605757806373d4a13a146069575b600080fd5b6000545b60405190815260200160405180910390f35b606760623660046071565b600055565b005b604560005481565b600060208284031215608257600080fd5b503591905056fea26469706673582212203c8d8d304ea720155656d1c3bc934b68a18fb90221fd3f0c1665ef0dda48685a64736f6c63430008130033",
  "immutableReferences": {},
  "source": "// SPDX-License-Identifier: MIT\r\npragma solidity >=0.8.19;\r\n\r\ncontract SimpleContract {\r\n    uint256 public data;\r\n\r\n    function setData(uint256 _data) public {\r\n        data = _data;\r\n    }\r\n\r\n    function getData() public view returns (uint256) {\r\n        return data;\r\n    }\r\n}\r\n",
  "sourcePath": "C:\\Users\\borot\\Desktop\\master\\rad\\master-etf\\contracts\\SimpleContract.sol",
  "compiler": {
    "name": "solc",
    "version": "0.8.19+commit.7dd6d404.Emscripten.clang"
  },
  "schemaVersion": "3.4.16",
  "updatedAt": "2024-08-16T19:55:27.881Z",
  "devdoc": {
    "kind": "dev",
    "methods": {},
    "version": 1
  },
  "userdoc": {
    "kind": "user",
    "methods": {},
    "version": 1
  }
}